{
  "_format": "hh-sol-artifact-1",
  "contractName": "RealityShield",
  "sourceName": "contracts/RealityShield.sol",
  "abi": [
    {
      "anonymous": false,
      "inputs": [
        {
          "indexed": false,
          "internalType": "string",
          "name": "sha",
          "type": "string"
        },
        {
          "indexed": true,
          "internalType": "address",
          "name": "owner",
          "type": "address"
        },
        {
          "indexed": false,
          "internalType": "uint256",
          "name": "timestamp",
          "type": "uint256"
        }
      ],
      "name": "ProofStored",
      "type": "event"
    },
    {
      "inputs": [
        {
          "internalType": "string",
          "name": "",
          "type": "string"
        }
      ],
      "name": "proofs",
      "outputs": [
        {
          "internalType": "address",
          "name": "owner",
          "type": "address"
        },
        {
          "internalType": "uint256",
          "name": "timestamp",
          "type": "uint256"
        }
      ],
      "stateMutability": "view",
      "type": "function"
    },
    {
      "inputs": [
        {
          "internalType": "string",
          "name": "sha",
          "type": "string"
        }
      ],
      "name": "storeProof",
      "outputs": [],
      "stateMutability": "nonpayable",
      "type": "function"
    },
    {
      "inputs": [
        {
          "internalType": "string",
          "name": "sha",
          "type": "string"
        }
      ],
      "name": "verifyProof",
      "outputs": [
        {
          "internalType": "bool",
          "name": "exists",
          "type": "bool"
        },
        {
          "internalType": "address",
          "name": "owner",
          "type": "address"
        },
        {
          "internalType": "uint256",
          "name": "timestamp",
          "type": "uint256"
        }
      ],
      "stateMutability": "view",
      "type": "function"
    }
  ],
  "bytecode": "0x608060405234801561001057600080fd5b5061077d806100206000396000f3fe608060405234801561001057600080fd5b50600436106100415760003560e01c80631fb82d26146100465780632640df77146100625780633b18f69114610094575b600080fd5b610060600480360381019061005b9190610495565b6100c5565b005b61007c60048036038101906100779190610495565b610218565b60405161008b93929190610553565b60405180910390f35b6100ae60048036038101906100a99190610495565b6102e1565b6040516100bc92919061058a565b60405180910390f35b600080826040516100d69190610624565b90815260200160405180910390206001015414610128576040517f08c379a000000000000000000000000000000000000000000000000000000000815260040161011f906106be565b60405180910390fd5b60405180604001604052803373ffffffffffffffffffffffffffffffffffffffff168152602001428152506000826040516101639190610624565b908152602001604051809103902060008201518160000160006101000a81548173ffffffffffffffffffffffffffffffffffffffff021916908373ffffffffffffffffffffffffffffffffffffffff160217905550602082015181600101559050503373ffffffffffffffffffffffffffffffffffffffff167f2fea04843f6dd94b35f59b184448ed2f1ba4e289775798a109183ac3e189299e824260405161020d929190610717565b60405180910390a250565b60008060008060008560405161022e9190610624565b90815260200160405180910390206040518060400160405290816000820160009054906101000a900473ffffffffffffffffffffffffffffffffffffffff1673ffffffffffffffffffffffffffffffffffffffff1673ffffffffffffffffffffffffffffffffffffffff168152602001600182015481525050905060008160200151036102c6576000806000935093509350506102da565b600181600001518260200151935093509350505b9193909250565b6000818051602081018201805184825260208301602085012081835280955050505050506000915090508060000160009054906101000a900473ffffffffffffffffffffffffffffffffffffffff16908060010154905082565b6000604051905090565b600080fd5b600080fd5b600080fd5b600080fd5b6000601f19601f8301169050919050565b7f4e487b7100000000000000000000000000000000000000000000000000000000600052604160045260246000fd5b6103a282610359565b810181811067ffffffffffffffff821117156103c1576103c061036a565b5b80604052505050565b60006103d461033b565b90506103e08282610399565b919050565b600067ffffffffffffffff821115610400576103ff61036a565b5b61040982610359565b9050602081019050919050565b82818337600083830152505050565b6000610438610433846103e5565b6103ca565b90508281526020810184848401111561045457610453610354565b5b61045f848285610416565b509392505050565b600082601f83011261047c5761047b61034f565b5b813561048c848260208601610425565b91505092915050565b6000602082840312156104ab576104aa610345565b5b600082013567ffffffffffffffff8111156104c9576104c861034a565b5b6104d584828501610467565b91505092915050565b60008115159050919050565b6104f3816104de565b82525050565b600073ffffffffffffffffffffffffffffffffffffffff82169050919050565b6000610524826104f9565b9050919050565b61053481610519565b82525050565b6000819050919050565b61054d8161053a565b82525050565b600060608201905061056860008301866104ea565b610575602083018561052b565b6105826040830184610544565b949350505050565b600060408201905061059f600083018561052b565b6105ac6020830184610544565b9392505050565b600081519050919050565b600081905092915050565b60005b838110156105e75780820151818401526020810190506105cc565b60008484015250505050565b60006105fe826105b3565b61060881856105be565b93506106188185602086016105c9565b80840191505092915050565b600061063082846105f3565b915081905092915050565b600082825260208201905092915050565b7f50726f6f6620616c72656164792065786973747320666f72207468697320686160008201527f7368000000000000000000000000000000000000000000000000000000000000602082015250565b60006106a860228361063b565b91506106b38261064c565b604082019050919050565b600060208201905081810360008301526106d78161069b565b9050919050565b60006106e9826105b3565b6106f3818561063b565b93506107038185602086016105c9565b61070c81610359565b840191505092915050565b6000604082019050818103600083015261073181856106de565b90506107406020830184610544565b939250505056fea264697066735822122058d1b7e9d1328d4c0786b1f27ae20de591f77bb26c887eefb727d7888c3353c864736f6c63430008180033",
  "linkReferences": {},
  "deployedLinkReferences": {}
}