{"contracts/RealityShield.sol":{"RealityShield":{"abi":[{"anonymous":false,"inputs":[{"indexed":false,"internalType":"string","name":"sha","type":"string"},{"indexed":true,"internalType":"address","name":"owner","type":"address"},{"indexed":false,"internalType":"uint256","name":"timestamp","type":"uint256"}],"name":"ProofStored","type":"event"},{"inputs":[{"internalType":"string","name":"","type":"string"}],"name":"proofs","outputs":[{"internalType":"address","name":"owner","type":"address"},{"internalType":"uint256","name":"timestamp","type":"uint256"}],"stateMutability":"view","type":"function"},{"inputs":[{"internalType":"string","name":"sha","type":"string"}],"name":"storeProof","outputs":[],"stateMutability":"nonpayable","type":"function"},{"inputs":[{"internalType":"string","name":"sha","type":"string"}],"name":"verifyProof","outputs":[{"internalType":"bool","name":"exists","type":"bool"},{"internalType":"address","name":"owner","type":"address"},{"internalType":"uint256","name":"timestamp","type":"uint256"}],"stateMutability":"view","type":"function"}],"evm":{"bytecode":{"linkReferences":{},"object":"608060405234801561001057600080fd5b5061077d806100206000396000f3fe608060405234801561001057600080fd5b50600436106100415760003560e01c80631fb82d26146100465780632640df77146100625780633b18f69114610094575b600080fd5b610060600480360381019061005b9190610495565b6100c5565b005b61007c60048036038101906100779190610495565b610218565b60405161008b93929190610553565b60405180910390f35b6100ae60048036038101906100a99190610495565b6102e1565b6040516100bc92919061058a565b60405180910390f35b600080826040516100d69190610624565b90815260200160405180910390206001015414610128576040517f08c379a000000000000000000000000000000000000000000000000000000000815260040161011f906106be565b60405180910390fd5b60405180604001604052803373ffffffffffffffffffffffffffffffffffffffff168152602001428152506000826040516101639190610624565b908152602001604051809103902060008201518160000160006101000a81548173ffffffffffffffffffffffffffffffffffffffff021916908373ffffffffffffffffffffffffffffffffffffffff160217905550602082015181600101559050503373ffffffffffffffffffffffffffffffffffffffff167f2fea04843f6dd94b35f59b184448ed2f1ba4e289775798a109183ac3e189299e824260405161020d929190610717565b60405180910390a250565b60008060008060008560405161022e9190610624565b90815260200160405180910390206040518060400160405290816000820160009054906101000a900473ffffffffffffffffffffffffffffffffffffffff1673ffffffffffffffffffffffffffffffffffffffff1673ffffffffffffffffffffffffffffffffffffffff168152602001600182015481525050905060008160200151036102c6576000806000935093509350506102da565b600181600001518260200151935093509350505b9193909250565b6000818051602081018201805184825260208301602085012081835280955050505050506000915090508060000160009054906101000a900473ffffffffffffffffffffffffffffffffffffffff16908060010154905082565b6000604051905090565b600080fd5b600080fd5b600080fd5b600080fd5b6000601f19601f8301169050919050565b7f4e487b7100000000000000000000000000000000000000000000000000000000600052604160045260246000fd5b6103a282610359565b810181811067ffffffffffffffff821117156103c1576103c061036a565b5b80604052505050565b60006103d461033b565b90506103e08282610399565b919050565b600067ffffffffffffffff821115610400576103ff61036a565b5b61040982610359565b9050602081019050919050565b82818337600083830152505050565b6000610438610433846103e5565b6103ca565b90508281526020810184848401111561045457610453610354565b5b61045f848285610416565b509392505050565b600082601f83011261047c5761047b61034f565b5b813561048c848260208601610425565b91505092915050565b6000602082840312156104ab576104aa610345565b5b600082013567ffffffffffffffff8111156104c9576104c861034a565b5b6104d584828501610467565b91505092915050565b60008115159050919050565b6104f3816104de565b82525050565b600073ffffffffffffffffffffffffffffffffffffffff82169050919050565b6000610524826104f9565b9050919050565b61053481610519565b82525050565b6000819050919050565b61054d8161053a565b82525050565b600060608201905061056860008301866104ea565b610575602083018561052b565b6105826040830184610544565b949350505050565b600060408201905061059f600083018561052b565b6105ac6020830184610544565b9392505050565b600081519050919050565b600081905092915050565b60005b838110156105e75780820151818401526020810190506105cc565b60008484015250505050565b60006105fe826105b3565b61060881856105be565b93506106188185602086016105c9565b80840191505092915050565b600061063082846105f3565b915081905092915050565b600082825260208201905092915050565b7f50726f6f6620616c72656164792065786973747320666f72207468697320686160008201527f7368000000000000000000000000000000000000000000000000000000000000602082015250565b60006106a860228361063b565b91506106b38261064c565b604082019050919050565b600060208201905081810360008301526106d78161069b565b9050919050565b60006106e9826105b3565b6106f3818561063b565b93506107038185602086016105c9565b61070c81610359565b840191505092915050565b6000604082019050818103600083015261073181856106de565b90506107406020830184610544565b939250505056fea264697066735822122058d1b7e9d1328d4c0786b1f27ae20de591f77bb26c887eefb727d7888c3353c864736f6c63430008180033","opcodes":"PUSH1 0x80 PUSH1 0x40 MSTORE CALLVALUE DUP1 ISZERO PUSH2 0x10 JUMPI PUSH1 0x0 DUP1 REVERT JUMPDEST POP PUSH2 0x77D DUP1 PUSH2 0x20 PUSH1 0x0 CODECOPY PUSH1 0x0 RETURN INVALID PUSH1 0x80 PUSH1 0x40 MSTORE CALLVALUE DUP1 ISZERO PUSH2 0x10 JUMPI PUSH1 0x0 DUP1 REVERT JUMPDEST POP PUSH1 0x4 CALLDATASIZE LT PUSH2 0x41 JUMPI PUSH1 0x0 CALLDATALOAD PUSH1 0xE0 SHR DUP1 PUSH4 0x1FB82D26 EQ PUSH2 0x46 JUMPI DUP1 PUSH4 0x2640DF77 EQ PUSH2 0x62 JUMPI DUP1 PUSH4 0x3B18F691 EQ PUSH2 0x94 JUMPI JUMPDEST PUSH1 0x0 DUP1 REVERT JUMPDEST PUSH2 0x60 PUSH1 0x4 DUP1 CALLDATASIZE SUB DUP2 ADD SWAP1 PUSH2 0x5B SWAP2 SWAP1 PUSH2 0x495 JUMP JUMPDEST PUSH2 0xC5 JUMP JUMPDEST STOP JUMPDEST PUSH2 0x7C PUSH1 0x4 DUP1 CALLDATASIZE SUB DUP2 ADD SWAP1 PUSH2 0x77 SWAP2 SWAP1 PUSH2 0x495 JUMP JUMPDEST PUSH2 0x218 JUMP JUMPDEST PUSH1 0x40 MLOAD PUSH2 0x8B SWAP4 SWAP3 SWAP2 SWAP1 PUSH2 0x553 JUMP JUMPDEST PUSH1 0x40 MLOAD DUP1 SWAP2 SUB SWAP1 RETURN JUMPDEST PUSH2 0xAE PUSH1 0x4 DUP1 CALLDATASIZE SUB DUP2 ADD SWAP1 PUSH2 0xA9 SWAP2 SWAP1 PUSH2 0x495 JUMP JUMPDEST PUSH2 0x2E1 JUMP JUMPDEST PUSH1 0x40 MLOAD PUSH2 0xBC SWAP3 SWAP2 SWAP1 PUSH2 0x58A JUMP JUMPDEST PUSH1 0x40 MLOAD DUP1 SWAP2 SUB SWAP1 RETURN JUMPDEST PUSH1 0x0 DUP1 DUP3 PUSH1 0x40 MLOAD PUSH2 0xD6 SWAP2 SWAP1 PUSH2 0x624 JUMP JUMPDEST SWAP1 DUP2 MSTORE PUSH1 0x20 ADD PUSH1 0x40 MLOAD DUP1 SWAP2 SUB SWAP1 KECCAK256 PUSH1 0x1 ADD SLOAD EQ PUSH2 0x128 JUMPI PUSH1 0x40 MLOAD PUSH32 0x8C379A000000000000000000000000000000000000000000000000000000000 DUP2 MSTORE PUSH1 0x4 ADD PUSH2 0x11F SWAP1 PUSH2 0x6BE JUMP JUMPDEST PUSH1 0x40 MLOAD DUP1 SWAP2 SUB SWAP1 REVERT JUMPDEST PUSH1 0x40 MLOAD DUP1 PUSH1 0x40 ADD PUSH1 0x40 MSTORE DUP1 CALLER PUSH20 0xFFFFFFFFFFFFFFFFFFFFFFFFFFFFFFFFFFFFFFFF AND DUP2 MSTORE PUSH1 0x20 ADD TIMESTAMP DUP2 MSTORE POP PUSH1 0x0 DUP3 PUSH1 0x40 MLOAD PUSH2 0x163 SWAP2 SWAP1 PUSH2 0x624 JUMP JUMPDEST SWAP1 DUP2 MSTORE PUSH1 0x20 ADD PUSH1 0x40 MLOAD DUP1 SWAP2 SUB SWAP1 KECCAK256 PUSH1 0x0 DUP3 ADD MLOAD DUP2 PUSH1 0x0 ADD PUSH1 0x0 PUSH2 0x100 EXP DUP2 SLOAD DUP2 PUSH20 0xFFFFFFFFFFFFFFFFFFFFFFFFFFFFFFFFFFFFFFFF MUL NOT AND SWAP1 DUP4 PUSH20 0xFFFFFFFFFFFFFFFFFFFFFFFFFFFFFFFFFFFFFFFF AND MUL OR SWAP1 SSTORE POP PUSH1 0x20 DUP3 ADD MLOAD DUP2 PUSH1 0x1 ADD SSTORE SWAP1 POP POP CALLER PUSH20 0xFFFFFFFFFFFFFFFFFFFFFFFFFFFFFFFFFFFFFFFF AND PUSH32 0x2FEA04843F6DD94B35F59B184448ED2F1BA4E289775798A109183AC3E189299E DUP3 TIMESTAMP PUSH1 0x40 MLOAD PUSH2 0x20D SWAP3 SWAP2 SWAP1 PUSH2 0x717 JUMP JUMPDEST PUSH1 0x40 MLOAD DUP1 SWAP2 SUB SWAP1 LOG2 POP JUMP JUMPDEST PUSH1 0x0 DUP1 PUSH1 0x0 DUP1 PUSH1 0x0 DUP6 PUSH1 0x40 MLOAD PUSH2 0x22E SWAP2 SWAP1 PUSH2 0x624 JUMP JUMPDEST SWAP1 DUP2 MSTORE PUSH1 0x20 ADD PUSH1 0x40 MLOAD DUP1 SWAP2 SUB SWAP1 KECCAK256 PUSH1 0x40 MLOAD DUP1 PUSH1 0x40 ADD PUSH1 0x40 MSTORE SWAP1 DUP2 PUSH1 0x0 DUP3 ADD PUSH1 0x0 SWAP1 SLOAD SWAP1 PUSH2 0x100 EXP SWAP1 DIV PUSH20 0xFFFFFFFFFFFFFFFFFFFFFFFFFFFFFFFFFFFFFFFF AND PUSH20 0xFFFFFFFFFFFFFFFFFFFFFFFFFFFFFFFFFFFFFFFF AND PUSH20 0xFFFFFFFFFFFFFFFFFFFFFFFFFFFFFFFFFFFFFFFF AND DUP2 MSTORE PUSH1 0x20 ADD PUSH1 0x1 DUP3 ADD SLOAD DUP2 MSTORE POP POP SWAP1 POP PUSH1 0x0 DUP2 PUSH1 0x20 ADD MLOAD SUB PUSH2 0x2C6 JUMPI PUSH1 0x0 DUP1 PUSH1 0x0 SWAP4 POP SWAP4 POP SWAP4 POP POP PUSH2 0x2DA JUMP JUMPDEST PUSH1 0x1 DUP2 PUSH1 0x0 ADD MLOAD DUP3 PUSH1 0x20 ADD MLOAD SWAP4 POP SWAP4 POP SWAP4 POP POP JUMPDEST SWAP2 SWAP4 SWAP1 SWAP3 POP JUMP JUMPDEST PUSH1 0x0 DUP2 DUP1 MLOAD PUSH1 0x20 DUP2 ADD DUP3 ADD DUP1 MLOAD DUP5 DUP3 MSTORE PUSH1 0x20 DUP4 ADD PUSH1 0x20 DUP6 ADD KECCAK256 DUP2 DUP4 MSTORE DUP1 SWAP6 POP POP POP POP POP POP PUSH1 0x0 SWAP2 POP SWAP1 POP DUP1 PUSH1 0x0 ADD PUSH1 0x0 SWAP1 SLOAD SWAP1 PUSH2 0x100 EXP SWAP1 DIV PUSH20 0xFFFFFFFFFFFFFFFFFFFFFFFFFFFFFFFFFFFFFFFF AND SWAP1 DUP1 PUSH1 0x1 ADD SLOAD SWAP1 POP DUP3 JUMP JUMPDEST PUSH1 0x0 PUSH1 0x40 MLOAD SWAP1 POP SWAP1 JUMP JUMPDEST PUSH1 0x0 DUP1 REVERT JUMPDEST PUSH1 0x0 DUP1 REVERT JUMPDEST PUSH1 0x0 DUP1 REVERT JUMPDEST PUSH1 0x0 DUP1 REVERT JUMPDEST PUSH1 0x0 PUSH1 0x1F NOT PUSH1 0x1F DUP4 ADD AND SWAP1 POP SWAP2 SWAP1 POP JUMP JUMPDEST PUSH32 0x4E487B7100000000000000000000000000000000000000000000000000000000 PUSH1 0x0 MSTORE PUSH1 0x41 PUSH1 0x4 MSTORE PUSH1 0x24 PUSH1 0x0 REVERT JUMPDEST PUSH2 0x3A2 DUP3 PUSH2 0x359 JUMP JUMPDEST DUP2 ADD DUP2 DUP2 LT PUSH8 0xFFFFFFFFFFFFFFFF DUP3 GT OR ISZERO PUSH2 0x3C1 JUMPI PUSH2 0x3C0 PUSH2 0x36A JUMP JUMPDEST JUMPDEST DUP1 PUSH1 0x40 MSTORE POP POP POP JUMP JUMPDEST PUSH1 0x0 PUSH2 0x3D4 PUSH2 0x33B JUMP JUMPDEST SWAP1 POP PUSH2 0x3E0 DUP3 DUP3 PUSH2 0x399 JUMP JUMPDEST SWAP2 SWAP1 POP JUMP JUMPDEST PUSH1 0x0 PUSH8 0xFFFFFFFFFFFFFFFF DUP3 GT ISZERO PUSH2 0x400 JUMPI PUSH2 0x3FF PUSH2 0x36A JUMP JUMPDEST JUMPDEST PUSH2 0x409 DUP3 PUSH2 0x359 JUMP JUMPDEST SWAP1 POP PUSH1 0x20 DUP2 ADD SWAP1 POP SWAP2 SWAP1 POP JUMP JUMPDEST DUP3 DUP2 DUP4 CALLDATACOPY PUSH1 0x0 DUP4 DUP4 ADD MSTORE POP POP POP JUMP JUMPDEST PUSH1 0x0 PUSH2 0x438 PUSH2 0x433 DUP5 PUSH2 0x3E5 JUMP JUMPDEST PUSH2 0x3CA JUMP JUMPDEST SWAP1 POP DUP3 DUP2 MSTORE PUSH1 0x20 DUP2 ADD DUP5 DUP5 DUP5 ADD GT ISZERO PUSH2 0x454 JUMPI PUSH2 0x453 PUSH2 0x354 JUMP JUMPDEST JUMPDEST PUSH2 0x45F DUP5 DUP3 DUP6 PUSH2 0x416 JUMP JUMPDEST POP SWAP4 SWAP3 POP POP POP JUMP JUMPDEST PUSH1 0x0 DUP3 PUSH1 0x1F DUP4 ADD SLT PUSH2 0x47C JUMPI PUSH2 0x47B PUSH2 0x34F JUMP JUMPDEST JUMPDEST DUP2 CALLDATALOAD PUSH2 0x48C DUP5 DUP3 PUSH1 0x20 DUP7 ADD PUSH2 0x425 JUMP JUMPDEST SWAP2 POP POP SWAP3 SWAP2 POP POP JUMP JUMPDEST PUSH1 0x0 PUSH1 0x20 DUP3 DUP5 SUB SLT ISZERO PUSH2 0x4AB JUMPI PUSH2 0x4AA PUSH2 0x345 JUMP JUMPDEST JUMPDEST PUSH1 0x0 DUP3 ADD CALLDATALOAD PUSH8 0xFFFFFFFFFFFFFFFF DUP2 GT ISZERO PUSH2 0x4C9 JUMPI PUSH2 0x4C8 PUSH2 0x34A JUMP JUMPDEST JUMPDEST PUSH2 0x4D5 DUP5 DUP3 DUP6 ADD PUSH2 0x467 JUMP JUMPDEST SWAP2 POP POP SWAP3 SWAP2 POP POP JUMP JUMPDEST PUSH1 0x0 DUP2 ISZERO ISZERO SWAP1 POP SWAP2 SWAP1 POP JUMP JUMPDEST PUSH2 0x4F3 DUP2 PUSH2 0x4DE JUMP JUMPDEST DUP3 MSTORE POP POP JUMP JUMPDEST PUSH1 0x0 PUSH20 0xFFFFFFFFFFFFFFFFFFFFFFFFFFFFFFFFFFFFFFFF DUP3 AND SWAP1 POP SWAP2 SWAP1 POP JUMP JUMPDEST PUSH1 0x0 PUSH2 0x524 DUP3 PUSH2 0x4F9 JUMP JUMPDEST SWAP1 POP SWAP2 SWAP1 POP JUMP JUMPDEST PUSH2 0x534 DUP2 PUSH2 0x519 JUMP JUMPDEST DUP3 MSTORE POP POP JUMP JUMPDEST PUSH1 0x0 DUP2 SWAP1 POP SWAP2 SWAP1 POP JUMP JUMPDEST PUSH2 0x54D DUP2 PUSH2 0x53A JUMP JUMPDEST DUP3 MSTORE POP POP JUMP JUMPDEST PUSH1 0x0 PUSH1 0x60 DUP3 ADD SWAP1 POP PUSH2 0x568 PUSH1 0x0 DUP4 ADD DUP7 PUSH2 0x4EA JUMP JUMPDEST PUSH2 0x575 PUSH1 0x20 DUP4 ADD DUP6 PUSH2 0x52B JUMP JUMPDEST PUSH2 0x582 PUSH1 0x40 DUP4 ADD DUP5 PUSH2 0x544 JUMP JUMPDEST SWAP5 SWAP4 POP POP POP POP JUMP JUMPDEST PUSH1 0x0 PUSH1 0x40 DUP3 ADD SWAP1 POP PUSH2 0x59F PUSH1 0x0 DUP4 ADD DUP6 PUSH2 0x52B JUMP JUMPDEST PUSH2 0x5AC PUSH1 0x20 DUP4 ADD DUP5 PUSH2 0x544 JUMP JUMPDEST SWAP4 SWAP3 POP POP POP JUMP JUMPDEST PUSH1 0x0 DUP2 MLOAD SWAP1 POP SWAP2 SWAP1 POP JUMP JUMPDEST PUSH1 0x0 DUP2 SWAP1 POP SWAP3 SWAP2 POP POP JUMP JUMPDEST PUSH1 0x0 JUMPDEST DUP4 DUP2 LT ISZERO PUSH2 0x5E7 JUMPI DUP1 DUP3 ADD MLOAD DUP2 DUP5 ADD MSTORE PUSH1 0x20 DUP2 ADD SWAP1 POP PUSH2 0x5CC JUMP JUMPDEST PUSH1 0x0 DUP5 DUP5 ADD MSTORE POP POP POP POP JUMP JUMPDEST PUSH1 0x0 PUSH2 0x5FE DUP3 PUSH2 0x5B3 JUMP JUMPDEST PUSH2 0x608 DUP2 DUP6 PUSH2 0x5BE JUMP JUMPDEST SWAP4 POP PUSH2 0x618 DUP2 DUP6 PUSH1 0x20 DUP7 ADD PUSH2 0x5C9 JUMP JUMPDEST DUP1 DUP5 ADD SWAP2 POP POP SWAP3 SWAP2 POP POP JUMP JUMPDEST PUSH1 0x0 PUSH2 0x630 DUP3 DUP5 PUSH2 0x5F3 JUMP JUMPDEST SWAP2 POP DUP2 SWAP1 POP SWAP3 SWAP2 POP POP JUMP JUMPDEST PUSH1 0x0 DUP3 DUP3 MSTORE PUSH1 0x20 DUP3 ADD SWAP1 POP SWAP3 SWAP2 POP POP JUMP JUMPDEST PUSH32 0x50726F6F6620616C72656164792065786973747320666F722074686973206861 PUSH1 0x0 DUP3 ADD MSTORE PUSH32 0x7368000000000000000000000000000000000000000000000000000000000000 PUSH1 0x20 DUP3 ADD MSTORE POP JUMP JUMPDEST PUSH1 0x0 PUSH2 0x6A8 PUSH1 0x22 DUP4 PUSH2 0x63B JUMP JUMPDEST SWAP2 POP PUSH2 0x6B3 DUP3 PUSH2 0x64C JUMP JUMPDEST PUSH1 0x40 DUP3 ADD SWAP1 POP SWAP2 SWAP1 POP JUMP JUMPDEST PUSH1 0x0 PUSH1 0x20 DUP3 ADD SWAP1 POP DUP2 DUP2 SUB PUSH1 0x0 DUP4 ADD MSTORE PUSH2 0x6D7 DUP2 PUSH2 0x69B JUMP JUMPDEST SWAP1 POP SWAP2 SWAP1 POP JUMP JUMPDEST PUSH1 0x0 PUSH2 0x6E9 DUP3 PUSH2 0x5B3 JUMP JUMPDEST PUSH2 0x6F3 DUP2 DUP6 PUSH2 0x63B JUMP JUMPDEST SWAP4 POP PUSH2 0x703 DUP2 DUP6 PUSH1 0x20 DUP7 ADD PUSH2 0x5C9 JUMP JUMPDEST PUSH2 0x70C DUP2 PUSH2 0x359 JUMP JUMPDEST DUP5 ADD SWAP2 POP POP SWAP3 SWAP2 POP POP JUMP JUMPDEST PUSH1 0x0 PUSH1 0x40 DUP3 ADD SWAP1 POP DUP2 DUP2 SUB PUSH1 0x0 DUP4 ADD MSTORE PUSH2 0x731 DUP2 DUP6 PUSH2 0x6DE JUMP JUMPDEST SWAP1 POP PUSH2 0x740 PUSH1 0x20 DUP4 ADD DUP5 PUSH2 0x544 JUMP JUMPDEST SWAP4 SWAP3 POP POP POP JUMP INVALID LOG2 PUSH5 0x6970667358 0x22 SLT KECCAK256 PC 0xD1 0xB7 0xE9 0xD1 ORIGIN DUP14 0x4C SMOD DUP7 0xB1 CALLCODE PUSH27 0xE20DE591F77BB26C887EEFB727D7888C3353C864736F6C63430008 XOR STOP CALLER "},"methodIdentifiers":{"proofs(string)":"3b18f691","storeProof(string)":"1fb82d26","verifyProof(string)":"2640df77"}}}}}